:020000040C00EE
:10000000E00500308157000CDF54000CE154000C77
:10001000E954000CF154000CF954000C0155000C8B
:100020000000000000000000000000003B55000C34
:100030003D55000C000000003F55000C4155000CE0
:100040009957000C9D57000CA157000CA557000CA8
:10005000A957000CAD57000CB157000CB557000C58
:100060004F55000CB957000CBD57000CC157000C80
:10007000C557000CC957000CCD57000CD157000CC8
:10008000D557000CD957000CDD57000CE157000C78
:10009000E557000CE957000CED57000CF157000C28
:1000A000F557000CF957000CFD57000C0158000CD7
:1000B0000558000C0958000C0D58000C1158000C84
:1000C0001558000C1958000C1D58000C2158000C34
:1000D000000000002558000C2958000C2D58000C79
:1000E0003158000C3558000C3958000C3D58000CA4
:1000F0004158000C4558000C4958000C4D58000C54
:100100005158000C5558000C5958000C5D58000C03
:100110006158000C6558000C6958000C6D58000CB3
:100120007158000C7558000C7958000C7D58000C63
:100130008158000C8558000C8958000C8D58000C13
:100140009158000C9558000C9958000C9D58000CC3
:10015000A158000CA558000CA958000CAD58000C73
:10016000B158000CB558000CB958000CBD58000C23
:10017000C158000CC558000CC958000CCD58000CD3
:10018000D158000CD558000CD958000CDD58000C83
:10019000E158000CE558000CE958000CED58000C33
:1001A000F158000CF558000CF958000CFD58000CE3
:1001B0000159000C0559000C0959000C0D59000C8F
:1001C0001159000C1559000C1959000C1D59000C3F
:1001D0002159000C2559000C2959000C2D59000CEF
:1001E0003159000C3559000C3959000C3D59000C9F
:1001F0004159000C4559000C4959000C4D59000C4F
:100200005159000C5559000C5959000C00000000C0
:10021000000000005D59000C000000006159000C56
:100220006559000C6959000C6D59000C7159000C8E
:100230007559000C7959000C7D59000C8159000C3E
:100240008559000C8959000C8D59000C2DE9F14F8E
:10025000B0B0924604910DF142013A9A2B91994621
:100260004A7000200AE01AF8011B0498309A90475F
:100270000028049000F06A860D98401C0D909AF8B2
:10028000000050B12528EED10021002207910892EC
:1002900009910A920B910C9204E00D9800F058BE5F
:1002A00041F001011AF8010F2028F9D023280CD0C1
:1002B0002B2804D02D2805D0302809D00BE041F0A0
:1002C0000201EFE741F00401ECE741F00801E9E742
:1002D00041F01001E6E72A280FD1D9F8002052F8A2
:1002E000040BC9F8002000280F9003D540420F905E
:1002F00041F004010AF1010A14E00F92DFF8583CC2
:100300000AE00F98984205DA00EB800402EB440201
:10031000303A0F920AF1010A9AF80020A2F1300057
:100320000A28EED39AF800002E2803D04FF0FF32AF
:100330000E9229E01AF8010F2A2809D1D9F80000F5
:1003400050F8042BC9F800000E920AF1010A1BE0D4
:100350002D280CBF0AF1010A002000220E92DFF8BE
:10036000F84B0BE040B90E9AA24205DA02EB820587
:1003700003EB4503303B0E930AF1010A9AF8003073
:10038000A3F130020A2AEDD3ADF840100FF6CC30BD
:100390009AF8001000F00EFF08B11AF8010B8DF862
:1003A00042009DF84200682805D19AF800006828AC
:1003B0000CD1622106E06C2804BF9AF800006C287A
:1003C00004D171218DF842100AF1010A12A8069099
:1003D0001AF801BBBBF125012CD01C3900F0D681E5
:1003E000091F022940F2D281133900F0E184093952
:1003F00000F0CC81891E00F07685491E00F023852F
:10040000491E022940F2C281091F00F01C85491FC4
:1004100000F03181491E00F0CB84491E00F0D880E5
:10042000C91E0DD0891E00F0C384C91E00F0C0840F
:1004300000F064BD25238DF84830012100F069BD2E
:10044000D9F8000050F8044BC9F80000002C0594BE
:1004500040F0AB802B994878002800F0A1804FF045
:10046000FF340FF6003000F0B1FE201A40F06E8528
:1004700000F050BD01236A4602A9304600F042FE5A
:10048000002840F063856D1EF4D13096079D12AFB1
:1004900075B1309E17F8012B02A9304600F022FEFC
:1004A000002801D46D1EF5D10028309640F04E850D
:1004B0000A9D3020002D8DF800000CDD309E0123B8
:1004C0006A4602A9304600F01DFE002840F03E8535
:1004D0006D1EF4D13096059F089D75B1309E17F8BA
:1004E000012B02A9304600F0FDFD002801D46D1E4D
:1004F000F5D10028309640F029850B9D3020002D45
:100500008DF800000CDD309E01236A4602A93046BA
:1005100000F0F8FD002840F019856D1EF4D13096EA
:1005200005980899099D471875B1309E17F8012B59
:1005300002A9304600F0D6FD002801D46D1EF5D189
:100540000028309640F002850C9D3020002D8DF85B
:1005500000000CDD309E01236A4602A9304600F0FF
:10056000D1FD002840F0F2846D1EF4D130969DF844
:10057000400041077FF583AE2020002C8DF800005D
:100580007FF77DAE309D01236A4602A9284600F020
:10059000B9FD002840F0DA84641EF4D130956EE68F
:1005A0000FF6C030059000F0B5BC0E9D002D04D5AF
:1005B000204600F02BFE044607E02A46204600F0C5
:1005C00041FE002814BF041B2C46089400F0A2BC76
:1005D000D9F8001051F8040BC9F8001020F00004FD
:1005E000002121F0FF3512ABCDE902450593DDE98D
:1005F000022306993C2413B90AB90E98A0B102F05F
:100600000F05641E30353A2D08DA12090D5542EAFD
:1006100003721B0908BF002A02D105E02735F4E761
:1006200005980D19A842EAD308190590C4F13C02B7
:100630000E98089282420ADABDF84010821A4FF6EC
:10064000EF7001400A92ADF8401000F063BC002842
:1006500040F160849DF8400000F01400102840F044
:1006600059840F9B07990A985B1A1B1A9A1A002A39
:1006700040F350849AE32B99487820B14FF0FF342F
:100680000FF6B020EFE69DF84200622860D068289F
:1006900017D06A283FD06C2806D0712847D074281C
:1006A0002CD07A281DD062E0D9F8001051F8040B44
:1006B000C9F80010002866D14FF0FF340FF68C20E7
:1006C000D1E6D9F8001051F8040BC9F8001020B990
:1006D0004FF0FF340FF67420C5E60D99018000F04D
:1006E00019BCD9F8001051F8040BC9F80010002803
:1006F00049D14FF0FF340FF65420B4E6D9F800107A
:1007000051F8040BC9F8001000283CD14FF0FF3419
:100710000FF63820A7E6D9F8001051F8040BC9F8F5
:10072000001080B94FF0FF340FF620209BE6D9F877
:10073000001051F8040BC9F8001020B94FF0FF3435
:100740000FF608208FE60D9AD317C0E90023E1E3E6
:10075000D9F8001051F8040BC9F8001020B94FF077
:10076000FF340FF6E8107EE60D990170D2E3D9F858
:10077000001051F8040BC9F8001020B94FF0FF34F5
:100780000FF6C8106FE60D990160C3E3D9F8002099
:10079000D21D22F00702C9F80020D2E90001083278
:1007A000C9F80020CDE90201C80F02D007982D2119
:1007B0000AE0BDF84000810702D507982B2103E02D
:1007C000C00705D50798202112AA1154401C079094
:1007D00012A80799DDE9024543184BF02000612873
:1007E000059321AE0BD00E98002802D506200E905E
:1007F00005E001BF4BF02000672801210E91DDE9E3
:10080000020148004015401C0A460DD109030BD0D7
:10081000ABF1610703201A2F089002D20FF648119E
:100820000DE00FF648110AE070B912030CD1ABF1DC
:10083000610703201A2F08901CD30FF638110322EA
:10084000184600F02BFD65E3DDE902016A4600F081
:1008500031FDCDE902014BF02000612811D105984E
:1008600030210170821C0592BBF1610F0CBF782111
:10087000582102E00FF6F801E1E741700798801C6B
:100880000790DDE9020120F0000231F0004308BFCB
:10089000002A02D10025002445E14BF02008B8F1E0
:1008A000610F40F095800E98002847BF21210191EB
:1008B000401C0190019F7F1C2046294600220023F6
:1008C000DDE9024500F02EFD38BF85F000450099B6
:1008D0008DF88420091F002F00910DF1850034DD73
:1008E0000646204629460022002300F035FD2BD283
:1008F0001C2200F04BFD04460D4600F0E5FDFF1FF5
:10090000002F804609DD00F0FBFD02460B46204625
:10091000294600F0BDFE04460D46F01D0721B8F142
:10092000000F0CDD491E5EBF08F00F0200F8012D1C
:100930004FEA2818F3D502E0002200F8012D491EE5
:10094000FAD5C61D002FCCDC30460DF18501401ACA
:1009500001990DF1850605468842C8BF0D46002D58
:100960002FD4854206DA0DF18500415D0829A8BF24
:100970000F2000DA0020294621AA0A4400E06D1E5B
:1009800012F80139491E8342F9D00F2804D10DF124
:100990008500425C521C4254002904D50098001D79
:1009A00021AE6D1C0090681E0BD431180A783032CD
:1009B000D3B23A2BA4BF5A443A3A401E01F8012957
:1009C000F4D50E98002840F1AD80691E0E91A9E083
:1009D0000099DFF8002747F29750414391FBF2F26C
:1009E000009225F00045C2F10702002A04DD2046EE
:1009F000294600F04BFB0BE052420020DFF8D816EE
:100A000000F044FB02460B462046294600F0B2FEA9
:100A100004460D46B8F1660F06BF009F0A37062749
:100A20000E983F18142FC8BF142730208DF884006B
:100A30000DF1850000E03046002F35DD06462046EA
:100A4000294600F0BBFF01460A4606F108030420D0
:100A50000A26B2FBF6F606EB860EA2EB4E02303209
:100A600003F8012C0A22B6FBF2F202EB820EA6EB8F
:100A70004E063036401E03F8026DE9D1083F002FC4
:100A800003F10806D7DD084600F0AAFF02460B4630
:100A90002046294600F0FCFD0022DFF8403600F039
:100AA000ADFF04460D46CAE70DF18501401A0DF170
:100AB000850604E00099491E401E0091761C31789D
:100AC0003029F7D0B8F1660F02D10099491C04E033
:100AD000B8F1650F0CBF012100210E9D4D19A842F0
:100AE000B8BF451E002D1DD4854204DA705D342840
:100AF000C8BF392000DC30202946721E531800E0A0
:100B00006D1E13F80149491E8442F9D0392802D1DB
:100B1000705C401C7054002904D50098401C164697
:100B20006D1C0090009C01F03FF8406A0778DDF8EA
:100B3000388028B2002802DC01250FF23C664BF019
:100B40002000662808BF641C16D0672846D120B252
:100B500010F1040F48DB404546DA9DF84000641C64
:100B6000010703D428B24045D8BF804620B2B8EB75
:100B7000000848BF4FF000080FFA84FBBBF1000FDC
:100B800000F3B5800898411C0891302205990A5459
:100B9000B8F1000F03DC9DF84000010704D5089868
:100BA000411C089105990F5418EB0B0FB8BFC8F101
:100BB000000424B26042A0442AB20B909045B8BF12
:100BC0004546059B08982DB209952A46314618449A
:100BD00000F064FBA8EB05000C90D2E0BBF1610FC4
:100BE00017D14FF0700B19E028B2404504DA9DF898
:100BF00040100A0758BF8046B8F1010848BF4FF0BF
:100C00000008BBF1670F14BF4FF0450B4FF0650BA9
:100C100004E0BBF1410F08BF4FF0500B0898411C96
:100C20000891B8F1000F059916F8012B0A5403DC5E
:100C30009DF8400001071AD50898411C0891B8F1A9
:100C4000000F05990F5412DD6D1E28B28045B8BF04
:100C500045460598089B2AB23146184400F01EFB11
:100C600008992DB269180891A8EB05000B9005981A
:100C70000899084421B2002980F800B003D42B223F
:100C80004270821C04E02D2242700C46821C644299
:100C900000212CAB20460AE004460A2094FBF0F029
:100CA00000EB8005A4EB450403F8014B491C00B29E
:100CB0000028F1DC012906DC4BF02000652804BF88
:100CC000302002F8010B00292CAB08D1302002F8AB
:100CD000010B06E0491E585C303002F8010B002978
:100CE000F8DC059908980844121A099249E028B2DC
:100CF00021B288421CDA0598089B2AB23146184472
:100D000000F0CCFA08992DB269180891ABEB0500F8
:100D1000B8F1000F0B9003DC9DF84000020704D5EA
:100D2000059847540999491C0991CDF8308028E06D
:100D30000598089B22B23146184400F0AFFA089893
:100D40002D1B5844B8F1000F089003DC9DF84010AB
:100D50000A0703D5411C089105990F5428B2804514
:100D6000B8BF45460598089B2AB206EB0B0118440C
:100D700000F094FA08982DB228180890A8EB050006
:100D80000B909DF8400000F01400102840F0C28045
:100D9000079A08990B988A18099982180C988A184A
:100DA00082180F98824280F2B580821A0A92B1E0CE
:100DB0009DF84200622808D068280ED06A2814D016
:100DC0006C281FD0712810D01CE0D9F8001051F801
:100DD000040BC9F80010C0B21AE0D9F8001051F89D
:100DE000040BC9F8001080B212E0D9F80020D21D1F
:100DF00022F00702C9F80020D2E900010832C9F840
:100E0000002006E0D9F8001051F8040BC9F80010D2
:100E10000021CDE902019DF8400001075AD5DDE926
:100E20000223002B08BF002A54D04BF02000782862
:100E300050D1079812A930220A54401C431C079332
:100E400001F800B046E09DF84200622808D068280A
:100E50000ED06A2814D06C281FD0712810D01CE046
:100E6000D9F8001051F8040BC9F8001040B21AE08C
:100E7000D9F8001051F8040BC9F8001000B212E0C4
:100E8000D9F80020D21D22F00702C9F80020D2E9CB
:100E900000010832C9F8002006E0D9F8001051F826
:100EA000040BC9F80010C117CDE90201002902D5D1
:100EB00007982D210AE0BDF84000810702D5079868
:100EC0002B2103E0C00705D50798202112AA115451
:100ED000401C079012A807990144059102A85946A1
:100EE00000F04EF816E001200790D9F8000050F805
:100EF000041BC9F800008DF848100BE025210122E1
:100F0000BBF1000F8DF84810079203D08DF849B05F
:100F1000022107910F9A07980A990C9C121A0898B7
:100F2000521A0B99121A0998521A121A9DF8400077
:100F3000141B41073FF5AAAA2020002C8DF80000C1
:100F40007FF7A4AA309E2546FFF794BA4FF0FF30F2
:100F500031B0BDE8F08F0000CBCCCC0C686A6C746B
:100F60007A4C00007072696E74665F733A20626139
:100F70006420257320617267756D656E74000000D2
:100F80002DE9FC4304466F29256908BF082605D0D2
:100F900041F02000782814BF0A261026D4E9002347
:100FA0003C2790469946642918BF692905D1002B32
:100FB00003D5D8F1000869EB4909B9F1000F08BF62
:100FC000B8F1000F0CD1206B50B9082E3AD194F82B
:100FD0003800010736D530203B2785F83B0031E04B
:100FE0008DF80010404649463246F31700F0E0FD08
:100FF0003032D0B27F1E3A2801970EDAEA554046C9
:1010000049463246F31700F0D3FD80465FEA0109F6
:1010100008BFB8F1000F05D108E09DF800001218D4
:10102000513AEBE7E068E9198842DBD3082E09D191
:1010300094F83800010705D5E85D302802D07F1EFE
:101040003020E855C7F13C02A261E919E160206B4C
:10105000824208DA821A22624FF6EF70218F014035
:101060002187BDE8F38300280ED594F8380000F0FE
:101070001400102808D1636B6169206A5B1A1B1A7F
:101080009A1A002AC8BF2262BDE8F3832DE9D04333
:1010900006460F4614464FF00008DFF8449012E071
:1010A000E00707D542464B463046394600F0A6FCDD
:1010B00006460F464046494642464B4600F09EFCD7
:1010C000641080468946002CEAD130463946BDE896
:1010D000D0830000A08601000000F03F84D7974134
:1010E0000000244010B503460C461146A0689847FE
:1010F000A06020B1E06A401CE062002010BD4FF00B
:10110000FF3010BDF8B505460E4617461C460020B8
:101110005CB117F8011BB068A847B06030B1F06A45
:10112000401CF0620020641EF3D1F2BD4FF0FF308E
:10113000F2BD00007072696E74665F733A20256EAE
:1011400020646973616C6C6F776564007072696E9E
:1011500074663A2062616420256E20617267756D45
:10116000656E7400000000006E616E004E414E001E
:10117000696E6600494E4600300030B501688468EB
:101180004218416802EB5103C90703D54C4401E002
:10119000491C08D19A4218BF12F9011B01D10C3029
:1011A00030BD12F8015B002904F8015BF0D4491E40
:1011B000F7D5EFE7C9B202788A421AB11CBF10F81E
:1011C000012FF9E718BF002070472E0080B500B945
:1011D00006A005490B681BB122220021984701E0B7
:1011E00000F069FD222002BDD4010030636F6E73F0
:1011F000747261696E742068616E646C65723A2005
:10120000626164206D6573736167650000F10103BD
:10121000810704D010F8011B820781B1FAD102685E
:10122000A2F10131914311F0803104BF50F8042F35
:10123000F6E709BAB1FA81F100EBD100401CC01AFF
:1012400070470000C9B2830706D0521E22D310F89F
:10125000013B9942F7D11FE0083A13D302F104028F
:1012600041EA012141EA014150F8043B121F21BF2C
:101270004B40A3F1013C2CEA030C1CF0803FF3D05F
:10128000C9B2001F083210F8013B521E28BF91EA74
:10129000030FF8D818BF0120401E70474AB1000064
:1012A00011F8013B521E00F8013B1CBF11F8013B35
:1012B000F8E7704710B5144600F002F8226010BD40
:1012C000C1F30A5343B14A0012F5001F28D2A3F21A
:1012D000FE32A1EB0251704750EA410C20D001F0E0
:1012E000004C31EA0C01B1FA81F204BFB0FA80F38C
:1012F000D2180B3AB2F120032CBF00FA03F191404F
:1013000041EA0C013EBFC2F1200C20FA0CF3194354
:101310009040524240F2FD33D21A01EB0351704724
:101320000022704741EA030C50EA4C0C52EA0C0CC4
:101330004FF4001C09D307D01CEB410F9CBF1CEBE2
:10134000430F8B4208BF824270471CEB430FFBD810
:10135000994208BF9042704741EA030C50EA4C0C96
:1013600052EA0C0C4FF4001C09D307D01CEB410FC0
:101370009CBF1CEB430F994208BF904270471CEB87
:10138000410FFBD88B4208BF82427047124254D4AF
:1013900040F2FF7C1CEA11530FD0634531D09B18FB
:1013A00063453CBF01EB0251704701F0004141EA47
:1013B0000C510020AFF30080704750EA410320D069
:1013C00001F0004C91EA0C011CD0B1FA81F30B3B07
:1013D0009A420DD9D21A994051EA0C01C3F1200C5E
:1013E00020FA0CFC61449840531C40F2FF7CD7E784
:1013F000914041EA0C01C2F1200C20FA0CF3194390
:1014000090407047B0FA80F31533202BE0D3202AA8
:10141000EED3203A203B9A4209D9D21A00FA03F1BE
:1014200041EA0C010020531C40F2FF7CB8E700FAAF
:1014300002F141EA0C0100207047524240F2FF7C69
:101440001CEA11530DD06345DBD0B2EB030C3CBF5B
:10145000A1EB025170470CF1010221EA035141F462
:10146000801150EA410CCCD001F0004C352A27DC29
:1014700030B481EA0C01B2F1200309DAC2F1200391
:10148000044601FA03F5D0402843D1409C400CE0CB
:10149000C3F12002450020FA03F418BF44F0010410
:1014A00021FA03F091400C43002174F1004550F102
:1014B000000051EB0C01244230BC7FF47BAF70473D
:1014C0006146002076E70000C1F30A5340F21E4255
:1014D000D31A0CDDCA0283F3070342EA505242F0EA
:1014E0000042DA4002EBE17282EAE17070476FEA93
:1014F000E17203F2E13008B182F000407047000071
:1015000010F0004160B148BF4042B0FA80F2904014
:10151000D21CC2F5846241EA025202EBD02140059E
:1015200070470000841A71EB030604D26E40001B62
:10153000B141121973414FF4001C1CEB410F34BF31
:101540007CEB430683E00C0DA4EB1356362E00F320
:101550007C80012E45EAC32341DC43EA525312BF8B
:10156000D20292025B08240545EAC12141EA5051AA
:10157000D2EBC020994125D407D1B0FA80F610FAF9
:1015800006F162D00020203608E0B1FA81F6B140C1
:10159000C6F1200220FA02F21143B0404FEAF4747F
:1015A000B4EB465434F001064FEA74040AD8D6F579
:1015B0000016760D04F00044F04061FA06F2504047
:1015C000F1404840C00A40EA415021F0004128BFA4
:1015D0005FEA500550F1000044EBD12135E0DB0A11
:1015E00045EAC121C90AB6F120050EDD42EA0242F0
:1015F000120CC5F1200603FA06F6EB4042EA060596
:101600006D42984161F100010DE062FA06F5F24089
:10161000554063FA06FC82EA0C02F3405A406D42E0
:10162000904161EB030111F4801F05D1641E620536
:1016300002D06D004041494121F48011430875F109
:10164000004350F1000041EB045170BC70471CEBAB
:10165000410F15D223F0004352EA43060BD04FEA64
:101660004C0CBCEB410F04D80C0D661E342EB7DDBC
:10167000EBE7801A994150EA410608BF0021E4E7F0
:1016800008BF1CEB430F28BF6FF00001DDE700002F
:1016900070B491EA030F4FF000457FF543AF6B4004
:1016A000841A71EB030603D2001BB1411219734176
:1016B0004FF4001C1CEB410F34BF7CEB430442E0B1
:1016C0000C0DA4EB1356352E4FDC45EAC323DB0A81
:1016D00045EAC121C912B6F120050DDD63FA05F610
:1016E000EB4086EA0305124218BF45F00105C01819
:1016F00051F100010CD213E062FA06F5F2405540B8
:10170000F3415A40B340F3405A408018594107D33F
:1017100049085FEA30005FEA350528BF45F001055A
:1017200001F58011420875F1004250F1000041EBD3
:1017300004514E0016F5001F70BC38BF70470020E2
:10174000090D090570471CEB410F10D252EA430600
:101750000BD0BCEB410F05D80C0DAB43661E342EED
:10176000B6DD02E0AB438018594170BC704770BCD5
:1017700070470000F0B540F2FF7581EA030C0CF0F1
:10178000004C15EA11541DBF15EA1357AC42AF4285
:10179000E5E0BC41C1F31301C3F31303801A99417F
:1017A00043F4801304D2641E001849418018594143
:1017B000C90241EA5051B1FBF3F603FB1611A2FB3B
:1017C0000675D7EBC020A94102D2761E8018594178
:1017D000C90241EA5051B1FBF3FE03FB1E11A2FB0B
:1017E0000E75D7EBC020A94103D2AEF1010E8018CF
:1017F0005941890241EA9051760546EA8E2EB1FBA5
:10180000F3F603FB1611A2FB0675D7EB8020A94166
:1018100002D2761E80185941C90241EA50514EEA5F
:10182000060EB1FBF3F603FB1611A2FB0675D7EB10
:10183000C020A94102D2761E80185941C90241EA4E
:101840005051B1FBF3F703FB1711A2FB0735D3EBA4
:10185000C020A94167F100070CBF004247F0010713
:1018600066F3D5274FEA1E31B80814F5806412DDFF
:10187000BD0775F1004250EB0E5051EB045111F5CC
:10188000801F5CBF41EA0C01F0BD4CF07F6141F06C
:10189000E0410020F0BDBD076D0840EA0E5041F464
:1018A0008011D4F10104B4F120060ADAC4F1200653
:1018B0000200E04001FA06F3E1401843B24015434C
:1018C0000EE0342C13DCC6F1200445EA40056D0817
:1018D00020FA06F2154321FA06F0A1400D4300213B
:1018E00075F1004250F1000051EB0C01F0BD0020F9
:1018F0005FEA0C01F0BDCFB992185B41B3FA83F7F0
:1019000004BFB2FA82F6BF190B3FB7F120062FBF12
:1019100002FA06F3BB40C7F1200622FA06F638BFEA
:101920003343BA401CB1E419641E33E77F4231F0FF
:101930000041B1FA81F404BFB0FA80F6A4190B3C5F
:10194000B4F120062FBF00FA06F1A140C4F1200631
:1019500020FA06F638BF3143A0403C1B1AE7AC42E0
:101960001ABF05EA1357AF4212E050EA41061CBF06
:1019700052EA4306BFE750EA4107304661461CBFC2
:1019800041EA0551F0BD52EA430C08BFC143F0BD26
:1019900000204FF4001616EB410F98BF16EB430FD3
:1019A00008BF16EB410F24BFC14305E016EB430F00
:1019B0000CBF61464CEA0551F0BD0000400D40F2FD
:1019C0001E4C40EAC120BCEB115C40F0004003D447
:1019D0008CF30701C84070476FEAE1707047000060
:1019E00050B1B0FA80F18840C91CC1F58461090585
:1019F00001EBD021400570470146704730B540F2F9
:101A0000FF7C1CEA11541DBF1CEA13556445654553
:101A10003FE0641981EA030C6FF35F530CF0004C54
:101A200043F48013C90241F0004141EA505EC5020F
:101A30001100A5FB020200284FF00000EEFB012080
:101A40004FF00001E3FB052118BF42F001024018EE
:101A500000214941E3FB0E01A4F580640D0302D28D
:101A600092184041494154F1010470DD450872F17A
:101A7000004250F1000051EB0451A1F5801102D455
:101A800041EA0C0130BD40F2FF7E4CEA0E510020CD
:101A900030BD0CEA1355644518BF654581EA030C57
:101AA0000CF0004C41D050EA410E1CBF52EA430EEC
:101AB00002E06146002030BD24422C441BD15FEA85
:101AC000050EF6D0090302BF01460020AEF1140E48
:101AD000B1FA81F5AEEB050401FA05FE0C35C5F14E
:101AE000200100FA05F5C8404EEA000E6FF35F537F
:101AF00043F480139CE733F00043B3FA83F504BF4B
:101B0000B2FA82FE75440B3D641BB5F1200E2FBF67
:101B100002FA0EF3AB40C5F1200E22FA0EFE38BFDA
:101B200043EA0E03AA40641C7CE750EA410E14BF4E
:101B300052EA430E6FF000014FF4001515EB430F0E
:101B40008EBF194615EB410F9DE7B4D830BDD4F1D7
:101B50000104B4F120050FDAC4F12005520828BFB2
:101B600042F0010210FA05FE01FA05F57244E2BFE7
:101B7000E0402843E1400FE0352C9ADCC5F1200419
:101B800052EA400220FA05F218BF42F0010231FA8F
:101B900005F0A1400A43002172F1004250F100001B
:101BA00051EB0C0130BD0000004870476000003070
:101BB000D3BBD9B1B2F5803F5BD2022A1ED98C4685
:101BC000B1FBF2F102FB11C31B0443EA1043B3FB68
:101BD000F2FC02FB1C3380B240EA0343B3FBF2F099
:101BE00002FB103240EA0C4000237047022A05D95C
:101BF0008446B0FBF2F002FB10C270474AB105D137
:101C000000F0010249085FEA30007047002200231B
:101C1000704700F053B80B0002000021002070470D
:101C2000F7D3002200237047904271EB030CF2D3EC
:101C300070B5B1FA81F4B3FA83F52C1BA340C4F15B
:101C4000200532FA05F63343A2405FF00046E64035
:101C500002E05B085FEA3202841A71EB030524BFDD
:101C6000204629467641F4D302000B0030000021C3
:101C700070BD70B5B1FA81F4B2FA82F5C4F12004F6
:101C80006419B4F12006DAD3B2405FF00044F440A6
:101C9000002502E052085FEA3303C61A71EB020E18
:101CA00024BF3046714664416D41F3D302000B00FE
:101CB0002000290070BD012000F002B8704700002C
:101CC00080B5AFF30080024A11001820ABBEFBE7DD
:101CD0002600020030B59C4B596B9C6A00F082F8DC
:101CE000996A9D6A9A6B00F0A0F830D000F0AAF8CB
:101CF0008A0106D5996ACA0303D5596B00F086F8A4
:101D000001E0DFED8D0AC0ED000A19688A0108D5EF
:101D1000996A8A0305D5596B00F05FF800F07AF8EC
:101D200001E0DFED850AC0ED010A19688A010CD5D2
:101D3000996A4A0306D5596B00F059F810EE101A4B
:101D4000816030BD9FED7C0AF8E70021F8E7016073
:101D500000224260F4E7000030B57B4BD96BDC6AAF
:101D600000F040F8D96ADD6A1A6C00F05EF830D0F5
:101D700000F068F80A0106D5D96ACA0303D5D96B01
:101D800000F044F801E0DFED6C0AC0ED000A1968CC
:101D90000A0108D5D96A8A0305D5D96B00F01DF868
:101DA00000F038F801E0DFED640AC0ED010A1968BF
:101DB0000A010CD5D96A4A0306D5D96B00F017F889
:101DC00010EE101A816030BD9FED5B0AF8E700212C
:101DD000F8E7016000224260F4E7B7EE001AC1F3B1
:101DE00006417047C1F3080100EE101A7047B7EEC4
:101DF000001AC1F3066100EE901AF8EE600A70EE68
:101E0000810A80EE200ABCEEC00A7047B7EE001AC5
:101E1000C1F3462100EE901AF8EE600A70EE810AD6
:101E2000C0EE200AFCEEE00A704705F01005C1F391
:101E30000521C2F3CC02554300EE905AF8EE600A39
:101E40000029704701EE101A04F00304B8EE411A9D
:101E50003E49012C15D014D3032C03D011D29FED91
:101E6000372A01E09FED362A82EE011AB8EE402AA9
:101E7000DFED341A00EEA12AB7EE000A32EE000AB6
:101E800013E01A68B8EE400AC2F3C102D14001EE75
:101E9000901AF8EE611A81EE811ADFED2A1A00EE2F
:101EA000A10AF7EE000A30EE200A196821EE000AB6
:101EB0007047000030B5244B596C1C6BFFF792FF44
:101EC000196B1D6B9A6CFFF7B0FF30D0FFF7BAFFAC
:101ED0008A0006D5196BCA0303D5596CFFF796FF24
:101EE00001E0DFED150AC0ED000A19688A0008D587
:101EF000196B8A0305D5596CFFF76FFFFFF78AFF4F
:101F000001E0DFED0D0AC0ED010A19688A000CD569
:101F1000196B4A0306D5596CFFF769FF10EE101ACA
:101F2000816030BD9FED040AF8E70021F8E7016009
:101F300000224260F4E70000000000000024744A20
:101F40000024F44A00000039000C02540090D00331
:101F5000F0B502460B46002789B0DFF8D849DFF814
:101F6000D8594FF4FA404FF00076BB4208BFB24256
:101F700027D1A169A26901F44071930703D5B1F596
:101F8000807F00F0B585A269130103D5B1F5007F0C
:101F900000F0D4852868820340F1CF85B1F5407FF9
:101FA00040F0CB85E86900F47C50B0F5007FC0F0CC
:101FB000C485E969DFF88409C1F30521B0FBF1F0BC
:101FC000DFE2DFF87C19002B08BF012A00F0368120
:101FD000002B08BF022A00F05281002B08BF042A00
:101FE00000F06781002B08BF082A00F08181002BD8
:101FF00008BF102A00F0A081002B08BF202A00F0A3
:10200000C181002B08BF402A00F0DE81002B08BFF1
:10201000802A00F0FB81002B08BFB2F5807F00F022
:102020001782002B08BFB2F5007F00F02482002B3E
:1020300008BFB2F5806F00F04282002B08BFB2F5F6
:10204000006F00F05A82002B08BFB2F5805F00F0ED
:102050007182002B08BFB2F5005F00F0B482002B44
:1020600008BFB2F5804F00F0C182002B08BFB2F567
:10207000004F00F0CE82002B08BFB2F5803F00F089
:10208000EF82002B08BFB2F5003F00F0F782002B73
:1020900008BFB2F5802F00F01983002B08BFB2F5FE
:1020A000002F76D0002B08BFB2F5801F00F0928081
:1020B000002B08BFB2F5001F00F05A82002B08BFAA
:1020C000B2F5800F00F0AB80002B08BFB2F5000F17
:1020D00000F0AB80002B08BFB2F1806F00F0F784F6
:1020E000002B08BFB2F1006F00F0CE83002B08BFB9
:1020F000B2F1805F00F0E583002B08BFB2F1005F12
:1021000000F0FC83002B08BFB2F1804F00F02B845D
:10211000002B08BFB2F1004F00F04784012B08BF2D
:10212000002A00F06784022B08BF002A00F08E848A
:10213000042B08BF002A00F09683082B08BF002A52
:1021400000F0B184102B08BF002A00F0DA84202BA5
:1021500008BF002A00F0E382402B08BF002A00F0ED
:102160000383802B08BF002A00F02283B3F5807F11
:1021700008BF002A00F04183B3F5007F08BF002AA2
:1021800000F01382B3F5806F36D1002A00F054823C
:10219000EDE1206910F4E0204AD0B0F5803F1FD077
:1021A000B0F5003F20D0B0F5403F21D0B0F5802FF2
:1021B00022D100F0C5FC01D5002852D02A68910533
:1021C00002D5B0F1804F52D029688A0353D5B0F1BF
:1021D000004F7AE2206910F4601029D0B0F5002F8A
:1021E00000F09B83B0F5801F00F09C83B0F5C01F0A
:1021F00000F09D83B0F5001F40F09F8400F0A0FC2C
:1022000001D500282DD02A68910502D5B0F1804F64
:102210002DD029688A032ED5B0F1004F55E2E06831
:1022200010F0400004D0402805E0E06810F0800085
:1022300000F06C84802800F0158498E1206810F08C
:10224000070000F0DB832A68130101D5012858D06C
:102250002A68930001D502285AD02A68930702D52C
:10226000032800F008842A68910502D5042800F0AC
:102270000E84A1698A0740F16084052876E1206810
:1022800010F038005BD02A68130101D5082838D037
:1022900010283DD02A68930701D5182862D02A68F3
:1022A000910501D5202864D0A1698A0765D5282821
:1022B0005CE1206810F4E07041D02A68130101D578
:1022C00040281ED02A68930001D5802820D02A6893
:1022D000930701D5C02845D02A68910502D5B0F5ED
:1022E000807F46D0A1698A0747D5B0F5A07F3DE140
:1022F000206810F4606022D02A68130103D5B0F57D
:10230000007F00F084832A68930003D5B0F5806FC6
:1023100000F006842A68930702D5B0F5C06F21D07B
:102320002A68910502D5B0F5006F22D0A1698A070D
:1023300023D5B0F5206F19E1206810F4E04000F0DB
:10234000D9812A68130102D5B0F5805FD9D02A68F7
:10235000930002D5B0F5005FDAD02A68930703D561
:10236000B0F5405F00F087832A68910503D5B0F58A
:10237000804F00F08C83A1698A0740F1DE83B0F5BD
:10238000A04FF3E0206810F4603064D02A68130195
:1023900002D5B0F5004FB4D02A68930002D5B0F54D
:1023A000803F65D02A68930702D5B0F5C03FD9D0E9
:1023B0002A68910502D5B0F5003FDAD0A1698A07F5
:1023C000DBD5B0F5203FD1E0206810F4E01042D01A
:1023D0002A68130102D5B0F5802F55D02A689300E2
:1023E00002D5B0F5002F43D02A68930702D5B0F587
:1023F000402FB7D02A68910502D5B0F5801FB8D01C
:10240000A1698A07B9D5B0F5A01FAFE0206810F424
:10241000600020D02A68130102D5B0F5001F33D028
:102420002A68930002D5B0F5800F21D02A6893075F
:1024300002D5B0F5C00F95D02A68910502D5B0F548
:10244000000F96D0A1698A0797D5B0F5200F8DE0CF
:10245000206810F0E06000F04D812A68130102D579
:10246000B0F1807F10D02A68930003D5B0F1007FCF
:1024700000F0568369E0206810F06050EBD02A68C5
:10248000130103D5B0F1006F00F0C1822A689300F8
:1024900002D5B0F1805FEBD02A68930702D5B0F186
:1024A000C05F1ED02A68910503D5B0F1005F00F02F
:1024B000EE82A1698A075AD5B0F1205F56E06068C4
:1024C00010F00700C7D02A68130101D50128DBD01E
:1024D0002A68930001D50228CAD02A68930702D53A
:1024E000032800F0C8822A68910501D50428DED0AF
:1024F000A1698A073BD5052838E0606810F07000B4
:10250000A9D02A68130101D51028BDD02A689300EC
:1025100001D52028ACD02A68930701D53028E0D017
:102520002A68910501D54028C1D0A1698A071ED526
:1025300050281BE0A06810F0E06000F03A82B0F193
:10254000807FA1D0B0F1007F92D02A68930702D596
:10255000B0F1407FC5D02A68910502D5B0F1806FF7
:10256000A5D0A1698A0702D5B0F1A06F24D0E4E21A
:10257000206910F0070000F07282012802D100F0FB
:10258000EDFADBE2022800F06D822A68930302D59F
:10259000032800F085822A68930701D50428A0D07B
:1025A0002A689105E3D5052858E02169A26901F060
:1025B0000801930702D5002900F09A82A26913014D
:1025C000D5D508299BE2E06810F440304BD0B0F537
:1025D000803F5DD02A68930702D5B0F5003F4CD00C
:1025E0002A689105C3D5B0F5403F37E0E06810F4A4
:1025F000402038D0B0F5802F4AD02A68930702D502
:10260000B0F5002F39D02A68910528D5B0F5402FB4
:1026100024E0E06810F4401033D0B0F5801F37D0CC
:102620002A68930702D5B0F5001F26D02A689105C5
:1026300015D5B0F5401F11E0E06810F4400020D03F
:10264000B0F5800F24D02A68930702D5B0F5000FAB
:1026500013D02A68910502D5B0F5400F57D06CE22F
:10266000E06810F0407045D0B0F1807F10D02A684B
:102670009307F4D5B0F1007FF1D1FCE1626812F468
:10268000E06200F09681B2F5807F4ED0B2F5007F17
:1026900000F0C780B2F5407F00F0C880B2F5806FCF
:1026A00000F0CA80B2F5A06FD9D100F049FA01D587
:1026B0000028E2D02A68910502D5B0F1804F26D0DB
:1026C00029688A0315D5B0F1004FBDE1626812F4A4
:1026D000E0420FD0B2F5805F27D0B2F5005F4CD05A
:1026E000B2F5405F4CD0B2F5804F4CD0B2F5A04F60
:1026F00003D022E200F0DEFA20E200F021FA01D558
:102700000028BAD02A68910503D5B0F1804F00F0B7
:10271000BE8129688A03ECD5B0F1004F94E162686C
:1027200012F4E02247D0B2F5803F00F0F680B2F517
:10273000003F22D0B2F5403F22D0B2F5802F22D008
:10274000B2F5A02FD5D100F0FBF901D5002894D027
:102750002A68910502D5B0F1804FD8D029688A0344
:10276000C7D5B0F1004F6FE1626812F4E00222D0E9
:10277000B2F5801FD9D0B2F5001F52D0B2F5401F7C
:1027800054D0B2F5800F57D0B2F5A00F48D100F069
:10279000D7F901D5002857D02A68910502D5B0F1A4
:1027A000804F58D029688A033AD5B0F1004F4BE1E9
:1027B000626812F0E06200F0FC80B2F1807FB4D079
:1027C000B2F1007F2DD0B2F1407F2FD0B2F1806FF7
:1027D00032D0B2F1A06F23D100F0B2F901D50028B8
:1027E00032D02A68910502D5B0F1804F33D02968E4
:1027F0008A0315D5B0F1004F26E1626812F0E0427D
:10280000D9D0B2F1805F61D0B2F1005F09D0B2F1EE
:10281000405F0BD0B2F1804F0ED0B2F1A04F0FD07D
:102820008BE16846FFF746FB029887E1A069400804
:1028300000F00100C00381E1A1690A01FBD47CE141
:1028400000F07EF902D5002800F015812A68910574
:1028500003D5B0F1804F00F01A8129688A03EED5C4
:10286000B0F1004FF0E02069296800F440708A035D
:1028700002D5002800F01481B0F5807F41D0B0F57A
:10288000007F00F0C48058E1A06800F00700042831
:10289000F9D8DFE810F03B01420047004C0005008A
:1028A00000F04EF901D50028CED02A68910502D556
:1028B000B0F1804FCFD029688A03E4D5B0F1004F42
:1028C000C2E0A06810F038001BD0082825D01028DE
:1028D00028D018282BD020281ED100F031F901D59E
:1028E000002855D02A68910502D5B0F1804FB2D0AA
:1028F00029688A0310D5B0F1004FA5E0A06810F454
:10290000E07000F00381402807D080280AD0C0285A
:102910000DD0B0F5807F15D00FE103A8FFF71CFAAA
:1029200003980BE16846FFF7C5FA009806E1DFF867
:102930001C0203E1D80C0254000C025400127A006D
:102940000090D00300F0FCF801D5002820D02A68C0
:10295000910502D5B0F1804F45D029688A03DBD5B7
:10296000B0F1004F70E0A06810F4606046D02A68B3
:10297000130102D5B0F5007F49D02A68930002D533
:10298000B0F5806F4DD02A68930702D5B0F5C06FBF
:1029900071D02A68910502D5B0F5006F23D029685F
:1029A0008A03B9D5B0F5206F4EE0A06810F4E0407E
:1029B00002D100F097F9C1E02A68130102D5B0F501
:1029C000805F24D02A68930002D5B0F5005F28D03C
:1029D0002A68930702D5B0F5405F4CD02A6891056C
:1029E00002D5B0F5804F52D029688A032DD5B0F5B5
:1029F000A04F29E0A06810F4603002D100F062F925
:102A00009CE02A68130107D5B0F5004F04D103A854
:102A1000FFF7A2F9049891E02A68930003D5B0F576
:102A2000803F00F07D802A68930702D5B0F5C03F53
:102A300021D02A68910502D5B0F5003F27D029683A
:102A40008A0302D5B0F5203F2AD076E0E06800F096
:102A50000300032871D8DFE800F00259050A00F0EE
:102A60001AF96BE003A8FFF777F9059866E000F024
:102A700067F806D528B908462968C1F3C101C840DE
:102A80005CE02A68910505D5B0F1804F02D1DFF8EE
:102A9000C00053E029688A034FD5B0F1004F4CD1F4
:102AA000DFF8B0004AE02169A26901F0C001930794
:102AB00000D5E9B1A269130101D540293ED02868AB
:102AC00082053AD5802938D148F2120036E02169D2
:102AD0002A6801F03001930400D559B32A689301A4
:102AE00001D5102912D0A269930704D5202902D15B
:102AF0004FF4004022E0A26913011ED530291DD0F9
:102B00001BE0E06800F03000102804D106A8FFF7B1
:102B1000E1F8079812E029688A0006D5202804D138
:102B20006846FFF7C7F9019808E029688A0404D5C8
:102B3000302802D1DFF8200000E0002009B0F0BD0D
:102B400020692A6800F04040930770470080BB006E
:102B500000093D0000127A00006CDC0230B5654BC4
:102B6000D86900F01800082801D16A4830BDD96939
:102B7000664811F0180F07D119688A0603D519683D
:102B8000C1F3C101C84030BDDA6902F01802102A51
:102B900001D1614830BDD96901F01801182972D1FD
:102BA0009C6A996A9A6AC2F300159A6BC1F305216F
:102BB000C2F3CC02554300EE105AB8EE400A002989
:102BC00060D000EE901A04F00304F8EE600A012CC5
:102BD00002D0032C22D031E019689FED471A20EE75
:102BE000010A8A060AD51968C1F3C101C84001EE7D
:102BF000100AB8EE411AC1EE200A03E09FED3F2A09
:102C0000C2EE200A586BF7EE001A00F03DF831EEE4
:102C1000000A70EE211A20EEA10A24E0586BDFEDC5
:102C2000361A9FED372A00F02FF800EE211AB7EE82
:102C3000000AC2EE200A31EE000A12E0586B9FED46
:102C4000311AC1EE200AC0F3080001EE900AF8EE36
:102C5000611A9FED291A40EE011AB7EE000A31EE13
:102C6000800A20EE800A586BC0F34620401C00EE1C
:102C7000900AF8EE600A80EE200ABCEEC00A10EE60
:102C8000100A30BD002030BDC0F3080001EE100A6C
:102C9000B8EE411A704780B5FFF760FF1F49096819
:102CA0001B4A01F00F01515C174A01F01F01C84097
:102CB000106002BD80B5FFF7EEFF00F00FF8C3F320
:102CC000021206E080B5FFF7E6FF00F007F8C3F355
:102CD0000222895C01F01F01C84002BD0F4A13683F
:102CE0000F49704780B5FFF7D6FFFFF7F7FFC3F333
:102CF0000232EEE7000C0254000000390024744C4C
:102D00000024F44A0024744A5C0000300090D00390
:102D10001451000C00093D0000127A00200C0254EE
:102D20009057000C2DE9F04FC3B000F083FB4FF437
:102D300086720021684600F0BBFB002000900190E5
:102D400003900590079009900B900D900F901190B3
:102D5000139015904FF0FF3022A900222290486076
:102D60008860C860086148618861C861086248621B
:102D70008862C862086348638863C86308644864FB
:102D80008864C86402920492069208920A920C9295
:102D90000E9210921292149242926946DFF8C0038A
:102DA00000F090FB08B100F0CDF9202000F015FCF8
:102DB00000B1FEE7202000F0ECFB00B1FEE7DFF8F9
:102DC000A403016841F40021016000F072F900F0F1
:102DD00087FC08B100F0B6F90120DFF88C13086019
:102DE000DFF888432268DFF888530FF2145642F068
:102DF0000802226020680FF2E8470FF2C44800F092
:102E000008000090009821680FF294490FF2704A70
:102E100041F00801216022684FF40071DFF854B3DB
:102E200002F00802009200980022284600F026FDD9
:102E300000224FF48071284600F020FD4FF4E1306D
:102E400000210190ADF8101000220391029201A917
:102E5000002000F025FD00F093FDDFF81C5303E097
:102E60000FF2BC5000F094FD0BF5887000F090FD5F
:102E7000504600F08DFD484600F08AFD404600F0C7
:102E800087FD384600F084FD304600F081FD0FF2EA
:102E9000904000F07DFD0FF2A84000F079FD0FF2A8
:102EA000C04000F075FD4FF47A7301226946284650
:102EB00000F017FE0328F6D09DF800100FF2C04076
:102EC00000F066FD9DF8000064281ED0682800F020
:102ED000AC806F280DD0702860D0722866D073281F
:102EE00000F09D80782800F0A9807A2800F0A88062
:102EF000B6E70FF2105000F04BFD00F0D0F800F0F4
:102F0000C5FA401C00F0BBFAAEE70FF28C4000F0AF
:102F10003FFDE069994D9A4E00F0C2F80FF22C3057
:102F200000F036FD29690BF1240000F031FD0BF1B2
:102F30004C0000F02DFD934828616A2169613068DA
:102F400040F480303060E16941F00201E161E06904
:102F500000F0020005900598584600F019FD296917
:102F60008EA000F015FD696992A000F011FD29689E
:102F700097A000F00DFD69689BA000F009FDA9680D
:102F80009FA000F005FD3168A4A000F001FD7E487F
:102F9000D0F80010A7A000F0FBFCFEE70BF59A703C
:102FA00000F0F6FC012001F0E7F85DE70FF20840C1
:102FB00000F0EEFC4422002105A800F079FA4FF45D
:102FC0001A410BF1700000F0E3FC01F0A4FA01F0EB
:102FD000CBFA02214FF41A42059106929FA000F00D
:102FE000D7FC05A801F0C5FB28B10BF1940000F057
:102FF000CFFC00F0A7F800BF9DA000F0C9FC01F0D5
:10300000C2FA28B10BF1C40000F0C2FC00F09AF83B
:103010000BF1E80000F0BCFC00F094F824E70FF29C
:10302000B43000F0B5FC0020BDE70FF2C03000F076
:10303000AFFC00F034F800F016FA15E701F0B8FD27
:103040000BF5AC7000F0A4FC4FF001604F49086034
:10305000026882F388884068A2B02DEC000A2DE94E
:10306000F00F002100220023002400250026002765
:10307000884689468A468B468C4681F3008820F034
:1030800001008447BDE8F00FEFF3148515F0080F39
:1030900018BFB0EE400A3DEC000A22B0FEE7E0693E
:1030A00040F00200E061E06900F002000590059840
:1030B000704710B586B01422002101A800F0F8F97D
:1030C0002A480168324C41F020010160026802F098
:1030D000200200920099026842F0800202600368B8
:1030E00003F08003009300990268012142F002027C
:1030F00002600068002200F0020000900098204664
:1031000000F0A7FB00221021224800F0B7FB0121AC
:1031100001910291002103910322049201A920460A
:1031200000F0E8FA06B010BD10B51B4C206808B1DD
:10313000401E05E00121164800F090FB4FF47A7024
:10314000206010BD80B50849086808B1FFF7B1FFDD
:10315000012201210E4800F07CFBFEE70000000088
:103160000000053024ED00E0D00100308C0C02544A
:10317000000C02520453000CE00000301004005414
:1031800004400244B4B451B4FC40024408ED02E0EF
:1031900000040252001402522C000030534253200B
:1031A0004442474352205B3078253038785D200D0B
:1031B0000A000000534253204442474C4F434B52B5
:1031C000205B3078253038785D200D0A0000000043
:1031D000534253204844504C4352205B30782530B2
:1031E00038785D200D0A0000534253204844504C6B
:1031F0005352205B3078253038785D200D0A00006E
:10320000534253204E4558544844504C4352205B3F
:103210003078253038785D200D0A00004442474D53
:103220004355204352205B3078253038785D200D9F
:103230000A0000004442474D4355205352205B3062
:1032400078253038785D200D0A0D0A0054657374B6
:103250002053425320444247200D0A0050726F67AA
:1032600072616D207374617465202E2E2E0D0A001C
:103270004F42204C61756E6368202E2E2E00000098
:1032800044656275672020202020202020202020F7
:1032900020202D2D2D2D2D2D2D2D2D2D20640A009E
:1032A00050726F766973696F6E204441206F626B54
:1032B00020202D2D2D2D2D2D2D2D2D2D20700A0072
:1032C00052656772657373696F6E2020202020201D
:1032D00020202D2D2D2D2D2D2D2D2D2D20720A0050
:1032E00053686F77206F626B20284844504C312917
:1032F00020202D2D2D2D2D2D2D2D2D2D20730A002F
:10330000496E6372656D656E74204844504C202090
:1033100020202D2D2D2D2D2D2D2D2D2D20680A0019
:10332000496E6372656D656E74204F424B48445020
:103330004C202D2D2D2D2D2D2D2D2D2D206F0A00C6
:10334000457869742053207379737469636B206FB7
:103350006E202D2D2D2D2D2D2D2D2D2D20780A007B
:10336000457869742053207379737469636B206F97
:1033700066662D2D2D2D2D2D2D2D2D2D207A0A001B
:10338000596F757220696E707574206973203A20C8
:1033900025630D0A000000003D3D3D3E205265635F
:1033A0006F76657279203D3E206F70656E20646592
:1033B000627567210D0A00003D3D3D3E204C617560
:1033C0006E63682072656772657373696F6E0D0A4C
:1033D000000000003D3D3D3E2052656164204441B7
:1033E000206F626B20617265610D0A003D3D3D3EBC
:1033F00020496E6372656D656E74204844504C0DB3
:103400000A0000003D3D3D3E20496E6372656D65DA
:103410006E74204F424B4844504C0D0A000000008F
:103420003D3D3D3E2042616420696E707574210D02
:103430000A00000080B5032001F0CFFBFFF78EFBF0
:10344000154A13681549164A03F00F03C95CC840B2
:1034500010600F2001F018FC08B1012002BD01F03E
:1034600035FC002002BD0F4802686A2161F30702A3
:10347000026070470C48006800F0FF0070470B497D
:103480000A68920840EA82000860704707480068AE
:1034900000F0030070470000200C02541451000C8F
:1034A0005C0000301004005414040054180400544C
:1034B00010B5044610460A460146204601F01EFC9F
:1034C000204610BDF0B5DFF8E831DFF8E841B0F193
:1034D000005F18BFB0F1405F0BD0A04218BF984208
:1034E00007D0DFF8D42190421CBFDFF8D051A842AA
:1034F0000BD10A68002A18BFB2F1004F05D14A6803
:10350000002A18BFB2F1804F01D00120F0BDB0F108
:10351000005F18BFB0F1405F03D1DFF8A421102392
:1035200009E0A04218BF984207BFDFF898210423A2
:10353000DFF894211423002008E001EB8004D4F884
:10354000885002EB8006401CC6F800529842F4D323
:103550004C6808680443002007E001EB8005AE6872
:1035600002EB8007401CC7F800619842F5D3106950
:10357000012505FA03F35B1E20EA0303D1F80801D5
:10358000034313611168002021F040410C43146093
:10359000F0BD020F00F01F0101EB42117E2902D2A3
:1035A00083060DD509B10120704748484FF0FF311F
:1035B0000160474A4260474B83604749C1600AE067
:1035C000424901EB82010A68012300F01F0003FA5F
:1035D00000F01043086000207047020F00F01F0148
:1035E00001EB42117E2902D283060DD509B10120DB
:1035F00070473A484FF0FF310160354A4260354B21
:1036000083603549C1600AE0344901EB82010A68F0
:10361000012300F01F0003FA00F0104308600020AF
:10362000704770B5294D2C68286904400BD02C6276
:10363000002605E0C00744BF304601F092FB761C2F
:1036400034FA06F0F6D16C68686904400CD06C62FC
:10365000002606E0C00744BF46F0805001F081FB21
:10366000761C34FA06F0F5D1AC68A86904400CD099
:10367000AC62002606E0C00744BF46F0005001F0EF
:1036800070FB761C34FA06F0F5D1EC68E86904406A
:103690000CD0EC62002506E0C00744BF45F0405066
:1036A00001F05FFB6D1C34FA05F0F5D170BD000030
:1036B0000000043000000420000005200000053058
:1036C000002C0350003003500034035000280350F6
:1036D00007FF0FFF03FFFF05FF0F3F3F20280350A9
:1036E0000348016841F001010160002070470000BB
:1036F000000403502DE9F04702460B464FF0000C42
:103700005A4CDFF86C81DFF86C914FF00F0A99E0AA
:10371000012101FA0CF1084000F092805D68022D51
:1037200018BF122D14D14FEADC0502EB850EDEF82E
:1037300020504FEA8C0606F01C060AFA06F7BD4335
:103740001F7C07F00F0707FA06F63543CEF8205026
:1037500016681F794FEA4C0E032505FA0EF5ED4366
:1037600007F003072E4007FA0EF73E4316605E6827
:10377000012E18BF022E03D0112E18BF122E10D109
:103780009668DF682E4007FA0EF73E43966056684B
:1037900026EA01015E68C6F3001606FA0CF631430C
:1037A00051605968032908D0D1680D40996801FA21
:1037B0000EF141EA050EC2F80CE05968C9003FD588
:1037C0004FEA9C012C4F59F821E04FEACC0507EA5B
:1037D000922705F018050AFA05F62EEA060607FAFA
:1037E00005F545EA060E49F821E0D8F800E05D68E5
:1037F000C14301EA0E0EEE0248BF40EA0E0EC8F8C1
:1038000000E0D8F804E05D6801EA0E0EAE0248BFA1
:1038100040EA0E0EC8F804E0D4F804E05D6801EA5E
:103820000E0EAE0348BF40EA0E0EC4F804E0D4F812
:1038300000E05D6801EA0E01ED0348BF014321602D
:103840000CF1010C186830FA0CF17FF461AFBDE89F
:10385000F0870AB18161704781627047426901EA6D
:103860000203914341EA0341816170478020025481
:1038700000200254602002547F7F2B0030B50024CA
:10388000056B08E00123A340194203D09D4302FACF
:1038900004F31D43641C31FA04F3F3D1056330BD16
:1038A00070B586B00D46002410B16FF001043CE005
:1038B0002F4801682F4E41F008010160026802F0B4
:1038C000080200920099026842F008020260036850
:1038D00003F008030093009902694FF4807142F4E9
:1038E000802202610069022200F48020009000988A
:1038F000019102920492072101220591039201A9EC
:103900003046FFF7F7FE4FF4007201920221029158
:103910000722059201A93046FFF7ECFE294616481A
:1039200001F020FA08B16FF00304204606B070BD24
:1039300070B50C461546002604E014F8010B761C01
:1039400000F004F8AE42F8D3284670BD71B50B4DB7
:103950002E78942081B04643074C4FF47A730122AD
:1039600001A9A01900F068F8019876BD00000000D8
:103970008C0C0254000C0252E0000030D8010030E0
:103980000248016821F002010160704710E000E088
:103990000EB4C0B5024603A800210190009101AB0E
:1039A0000121044878440C30FCF750FC06BC5DF85B
:1039B00010FB00BFB51D000038B5040009D004F1AC
:1039C0008405696809B900F01EF800F021F80128A3
:1039D00001D1012032BDA06A08B100F02AF800F040
:1039E0000AF821F02A01FFE7816000F01BF8BDE82A
:1039F000324000F057BA2068416821F4904141609C
:103A000020688168704700202870204601F0C8B9FE
:103A10002421696020680268520852000260204632
:103A200000F0ECB82068016841F001010160204617
:103A30007047204600F0D3B92DE9F843054605F15B
:103A40005406706B0C4617469946202846D10CB197
:103A5000380001D1012042E0286881680A0603D5B8
:103A6000816821F0800181600020F0632121716371
:103A700001F098F9378080467780A868B0F5805FBC
:103A800004BF286900281ABF20460027274604469D
:103A900011E00022802100F092F8D8B92868002CAB
:103AA00012BF14F8011B37F8021BC1F30801816231
:103AB0007088411E71807088CDF8009043460028C0
:103AC000E7D10022402100F07AF818B92020706375
:103AD000002004E020207063032000E00220BDE805
:103AE000F2832DE9FC47054605F15C07386B0C466F
:103AF0001646984620285FD1002C14BF002E0120C6
:103B00005BD0286881684A0603D5816821F04001AE
:103B100081600020786322213963386101F042F925
:103B20003E8081467E80A868FF21B0F5805F04D189
:103B3000286990B940F2FF110FE018B9286960B107
:103B40007F2007E0B0F1805F06D1286908B97F21A6
:103B500003E03F20B88001E00021B980A868BE885A
:103B6000B0F5805F04BF286900281ABF20464FF0D7
:103B7000000AA24604460CE02868002C406A19BFDF
:103B8000304004F8010B30402AF8020B7988481EB7
:103B90007880788860B1CDF800804B4600222021E3
:103BA00000F00DF80028E7D020203863032004E05F
:103BB00020203863002000E00220BDE8F687284678
:103BC00000F0B7B941F4807142E800100028704756
:103BD000284600F0F2B9286850E8001F02467047F6
:103BE000286800F1080151E8001F00F108034908A6
:103BF000490043E80010002870470000F8B504466B
:103C00002268DFF8240400251368A16803402069B6
:103C10000B4361690343E0690B430343136051683D
:103C2000E068DFF8083421F4405101435160DFF8C7
:103C30000014A6698A421EBF9A42206A064397680A
:103C4000DFF8F00307403E439660D66A606ADFF80B
:103C5000E873360940EA0616BA42D66256A61ED165
:103C60000120E26900214FF6F077B2F5004F40F0F5
:103C70008680FEF76DF9002810D000F0A9F84A08F8
:103C800002EB4002B2FBF1F0A0F11001B94272D296
:103C90000740C0F3420007432068C76081E0DFF8B7
:103CA0009C73BA4208BF0220DBD0DFF89403824243
:103CB00008BF0420D5D0DFF88C03824208BF08205B
:103CC000CFD0B2F1502F08BF1020CAD0DFF8780350
:103CD000824208BF2020C4D0DFF87003824208BFB0
:103CE0004020BED0DFF86803824208BF8020B8D0F1
:103CF000DFF86003824208BF4FF48070B1D0DFF874
:103D00005803824208BF4FF40070AAD0DFF84C037A
:103D1000824208BF4FF48060A3D0DFF844038242A0
:103D200008BF4FF400609CD09A420EBF4FF4805001
:103D300000208A4295D10021FEF70AF9002830D0F0
:103D4000616A36F81120B0FBF2F6626802EB4201BC
:103D50008E4224BF1303B34222D35008002110EB3C
:103D60000620DFF8007351EB16610023FDF720FFFA
:103D7000A0F54076BE4213D22168C86011E0FEF77C
:103D8000E7F870B100F024F800EB5100B0FBF1F05F
:103D9000A0F11001B94203D2226880B2D06000E0E5
:103DA000012504F168000121002341800180C360E6
:103DB00003612846F2BD0000010002000400060075
:103DC00008000A000C0010002000400080000001E4
:103DD000626A616836F81230B0FBF3F0704790F811
:103DE0002810CA0706D502685368C16A23F4003355
:103DF0000B43536090F828108A0706D50268536871
:103E0000016B23F480330B43536090F828104A076A
:103E100006D502685368416B23F480230B4353603B
:103E200090F828100A0706D502685368816B23F4BE
:103E300000430B43536090F82810CA0606D5026869
:103E40009368C16B23F480530B43936090F8281060
:103E50008A0606D502689368016C23F400530B436D
:103E6000936090F828104A0610D502685368416C98
:103E700023F480130B435360436CB3F5801F05D1CB
:103E80005368816C23F4C0030B43536090F82810EF
:103E90000A0606D501684A68C06C22F40022024373
:103EA0004A607047F8B5054605F184040020E060DB
:103EB00000F078FF064628686FF07E4701680A0721
:103EC00011D50097334600224FF40011FFF777FE1B
:103ED00048B1FFF780FE21F08001FFF775FEF8D1B1
:103EE0002020606017E0286801684A0717D500970E
:103EF000334600224FF48001FFF761FE78B1FFF7EF
:103F00006AFE21F49071FFF75FFEF8D1FFF768FEBB
:103F1000FCD12020A060002121700320F2BD2020D0
:103F200060602021A1600020E866002129672070E0
:103F3000F2BD2DE9F04105460E4690461F46069C0F
:103F40002868C1693140B1420CBF012000204045C2
:103F500031D114F1010FF3D000F024FFC01B8442D3
:103F600000D314B90320BDE8F081286801684A072E
:103F7000E6D5C169080704D42968C8690105DFD5F9
:103F80000CE02A6808201062FFF722FE05F1840089
:103F90000821C160002202700120E4E729684FF483
:103FA00000600862FFF714FE05F184002021C16063
:103FB00000220270D6E70020D5E710B500F011F816
:103FC000FCD100F018F8FCD1C16E012902D100F03B
:103FD00020F8FCD12021C0F88C100022C266426774
:103FE00010BD016851E8002F0B4622F4907243E89F
:103FF000002100297047016801F1080252E8002FF2
:1040000001F10804DFF860100A4044E800210029AB
:104010007047026852E8002F036822F0100243E85C
:104020000021002970470000F369FFCF00240054ED
:1040300000240044FFF4FF110038015000440050F8
:1040400000480050004C00500064005000780050C0
:10405000007C00500080005000680050006C005050
:104060000084005000FD0F00FEFFFFEF01E00000A4
:1040700000BF40680069B1FBF0F200FB1211481E5E
:104080008041C00F704770B50D4614462118491E77
:10409000B1F5106F14D2DFF804630022DFF8F412D8
:1040A0003260091822462846FDF7F8F8306828B132
:1040B00000F05CF82146284600F07AFE002070BD32
:1040C0006FF0040070BD2DE9F841144685B00F462D
:1040D000002201A900239446964681E80C50DFF89F
:1040E000B4622318002536185B1E0092B3F5106FDA
:1040F00009D200F02EF8012805D121464046FFF7ED
:10410000B7FF012802D06FF004001FE000F003FAAF
:1041100000F0ACFC00F022F808B110E01035A54228
:1041200008D2EA19A919DFF8700200F0A5F90028F1
:10413000F4D004E040F2FF1000F0B3FC08B14046B8
:1041400004E000F0FFF900F0A1FC002006B0BDE89B
:10415000F081DFF84C820146404687E70820019055
:10416000694601A86FF0050800F0B6BA8D490968E4
:104170008D48FFF70DBC00002DE9F84FC4B005468F
:10418000DFF828A229A851466C22FDF787F80AF12A
:104190006C00FFF7FDFB602111A800F00DFE00F0A0
:1041A0000BF95FEA000806D04FEA080185A0FFF787
:1041B000EFFBFEF7C7FF0AF1900B584611ACFFF773
:1041C000E7FB26460AF1C40935E006F10F010A783B
:1041D00006F10E0000780C9206F10D030B90197891
:1041E00006F10B030A9106F10C010A78099219787D
:1041F00006F10903089106F10A010A780792197875
:10420000F31D069106F108010A7805921978731DCD
:104210000491B11D0A7803921978B21C02910190A1
:10422000F01C0178701C0091137816F8101B0278AE
:104230004846FFF7ADFB04F1600010908642C4D3FE
:104240005846FFF7A5FB5A4801680C222E4641F05C
:1042500002010160006829A900F0020000900098A6
:104260000DA8FDF71BF80AF58C70FFF791FB0D996F
:1042700059A0FFF78DFB0E9F5CA03946FFF788FB26
:10428000DDF83C505EA02946FFF782FBFFF7FEF801
:104290004FEA000160A0FFF77BFBFFF7EBF8014658
:1042A00064A0FFF775FB012E70D1002D18BF012D02
:1042B00005D00AF5A070FFF76BFBFEF743FF0D98E2
:1042C0003449000C0004884205D000BF60A0FFF70D
:1042D0005FFBFEF737FF0AF5B270FFF759FB0D9849
:1042E000344B3A462CA91818FFF7EDFE0AF5C470B6
:1042F000FFF74EFB00F060F85FEA000805D041468A
:1043000058A0FFF745FBFEF71DFF0AF5D670FFF733
:104310003FFB35E004F10F010A7804F10E0000784C
:104320000C9204F10D030B901D7804F10C0104F1C3
:104330000B030A950A7804F10A0109921D7804F129
:10434000090308950A7804F1080107921D78E31D16
:1043500006950A78A11D05921D78631D04950A78BB
:1043600003921D780190E01C02950178A21C601C4C
:104370000091137814F8101B02784846FFF708FBE9
:1043800010988442C6D35846FFF702FB404645B01A
:10439000BDE8F08F0000FD0F06000010CC010030DA
:1043A00000000030042102504056000C2451000C43
:1043B000A80C0254000003F0602211A94FF4807091
:1043C00061E600004F424B5F526561642065727286
:1043D0006F722025640D0A004F424B2061646472A5
:1043E0006573733A20253038780D0A004F424B2010
:1043F0006C656E6774683A20253038780D0A0000C5
:104400004F424B20656E637279707465643A202563
:104410003038780D0A00000043757272656E7420A2
:10442000534253204F424B4844504C20697320253F
:10443000780D0A0043757272656E742053425320E2
:104440004844504C2069732025303278200D0A00F2
:1044500057726F6E67206164647265737320210DFB
:104460000A0000004F424B5F526561642065727222
:104470006F722025640000002DE9F84F0546DFF833
:10448000184220788B469246012808BF02203DD072
:10449000012020700021616000F03AF8010033D162
:1044A000A560DFF8F861DFF8F881002D54BF4746BA
:1044B000374625F00042DFF8EC9158465146022A73
:1044C00002D100F0ABF80AE0DFF8DC21954218BF1A
:1044D0004D4502D100F0B0F801E000F0D0F800F056
:1044E00017F83968DFF8C4212A40914339604D45F7
:1044F0000AD1A168002954BF08F1180106F118017A
:104500000A6822F004020A6000212170BDE8F28FDF
:104510004FF47A703FE030B5674A546A002067492B
:10452000674BE50704D513601160546AE50707D4AB
:10453000946AE50705D553605160916ACA0700D5B2
:10454000012030BD5F490A68002042F001020A6084
:104550000B68DA0706D54A6842F001024A604968EA
:10456000CA0700D40120704757480169CA0708D517
:1045700056490160564B03600069C10701D501200F
:104580007047002070475348016841F00201016004
:104590004FF47A70FFE72DE9F843044600F002FC7F
:1045A00080463D4EB068424DDFF8089100284CBF70
:1045B0004F462F1D386810F00B0F0CD014F1010F6F
:1045C000F8D000F0EFFBA0EB0800844201D3002CF0
:1045D000F0D1032020E0B068002854BF05F1140199
:1045E00009F1100138682A6800F47E0002F4000224
:1045F00010430AD07268024372600860000244BF30
:104600004FF400012961012006E03868C20344BF6D
:104610004FF4803008600020BDE8F28310B51E4AD8
:104620009368002B54BF1E4A1C4A136843F00203D0
:10463000136000F017F810BD30B5174A9368002BCF
:1046400054BF174B154B1D6803F1180445F00205C4
:104650001D602368127A02F004021343236000F005
:1046600001F830BDEFF3108372B6042251F8044B09
:10467000521E40F8044BF9D183F310887047064A64
:104680009368002B54BF064A044A136843F00203A0
:1046900013600988018070473C00003028200240E8
:1046A0002C2002500600001002000010FBFFFF4FFC
:1046B000202002502020024004200250AB89EFCD80
:1046C00023016745282002500C2002503B2A19087C
:1046D0007F6E5D4C1C2002502DE9F0410446DFF84E
:1046E0009C6430780D46012808BF02203FD001208D
:1046F00030700021716000F0F1F9010035D12168BE
:10470000B160002954BFDFF87884DFF8788421682D
:1047100048F2080321F000429A4203D1606800F099
:10472000E1F903E0082904D100F01DFA00F0D6F900
:1047300013E04FF0FF312960A76800E07F1CE168BB
:10474000A26851188F4208D26168384600F0EDF92E
:1047500000F0C4F90100F1D02F60D8F800102268F1
:1047600022F000429143C8F8001000213170BDE8EA
:10477000F0812DE9F84F0446DFF800A49AF8000014
:10478000012808BF022000F06F8101208AF8000094
:1047900000214FF08022CAF80410CAF8082000F067
:1047A0009DF9010040F05D812178DFF8DC23DFF81E
:1047B000DC33CE071FD5A769E1696669012F0DD1EA
:1047C000C943F70705D5D3F808C001EA0C0CC3F8B4
:1047D00008C0B6070FD5976839400BE0F70705D535
:1047E000D3F808C041EA0C0CC3F808C0B60702D5DC
:1047F0009768394391602178DFF894638F0708D573
:10480000D6F800C061682CF47F4541EA050CC6F873
:1048100000C02778790740F1BE80D4F808C04FF077
:10482000000EF04600252769D4F80CB0C1465FEAB7
:10483000CC7144BF0BF0030E4FF003085FEA8C719C
:1048400005D50BF0040141EA0E0E48F004085FEABA
:104850004C7106D571460BF0080E4EEA010E48F079
:1048600008085FEA0C7106D571460BF0100E4EEA8F
:10487000010E48F010085FEACC6106D571460BF0D6
:10488000400E4EEA010E48F040085FEA8C6106D502
:1048900071460BF0800E4EEA010E48F080085FEA88
:1048A0004C6106D571460BF4803E4EEA010E48F489
:1048B00080385FEA0C6106D571460BF4003E4EEA83
:1048C000010E48F400385FEACC5106D571460BF46E
:1048D000801E4EEA010E48F480185FEA8C5106D51E
:1048E00071460BF4001E4EEA010E48F400185FEA10
:1048F0004C5106D571460BF07F5E4EEA010E48F032
:104900007F585FEA0C5105D50BF0004141EA0E0ECD
:1049100048F000485FEACC4144BF07F004054FF07F
:1049200004095FEA8C4104D507F008010D4349F002
:1049300008095FEA4C4104D507F010010D4349F026
:1049400010095FEA0C4104D507F020010D4349F03E
:1049500020095FEACC3104D507F040010D4349F04E
:1049600040095FEA0C3104D507F07F473D4349F029
:104970007F495FEA0C5106D0376827EA08014EEA02
:10498000010EC6F800E01CF47F2F04D0316A21EA42
:1049900009010D4335622768B9050AD5216CE76B1B
:1049A000656947EA0147E90748BF1F60A90748BF93
:1049B000176021780F0710D5276A616A012F05D18A
:1049C000376B07F0FF073943316306E0022F04D14C
:1049D000B76B07F0FF073943B1632178CF0610D5D5
:1049E000276AA16A012F05D1376B3F0A41EA0721E7
:1049F000316306E0022F04D1B76B3F0A41EA072179
:104A0000B16321788F0606D5D6F840C0E16A41EA45
:104A10000C0CC6F840C0267871060AD5616B266B6F
:104A2000676946EA0146F90748BF9E61B90748BF72
:104A3000966121780E0614D5A16B646949B1491EAF
:104A400041F40041E60748BF1961A30709D5116188
:104A500007E0E10744BF00261E61A10744BF002311
:104A6000136100218AF80010BDE8F28F49490A6BF2
:104A70000020D30700D4704710B5474A0A60474C5E
:104A80000C60096BCA0748BF012010BD44490A6881
:104A9000012042F001020A600968CA0748BF0020ED
:104AA000704710B500F019F8010015D1334881683E
:104AB000002954BF3A483B4801686FF3184141EA66
:104AC00004410160026842F0020202604FF47A7011
:104AD000BDE81040FFF75FBD10BD04464FF47A708B
:104AE000FFF759BD10B525498A68002A54BF244AEA
:104AF000244A00F00301032906D1106840F4004065
:104B000040F02000106010BDC30705D51468264989
:104B10000C4044F028041460800705D5116841F06A
:104B2000004141F02801116010BD10B5134A93688F
:104B3000002B54BF124A134ACB0707D514681B49F0
:104B40000C401460136843EA801008E0116821F4F7
:104B5000FE511160136843EA801040F0004040F0BD
:104B60002400106010BD05488168002954BF0C481E
:104B70000C48016841F00801016070473C000030BA
:104B80002C20025028200240E4210250E420025050
:104B900054200250142002503B082A195D4C7F6EAD
:104BA0004420025040200240D7FFFF7F3FE0FF7FBC
:104BB0000248016841F002010160704710E000E026
:104BC0000901020002D42A4881547047294B02F09F
:104BD0000F021A4402F8041C7047274B19684FF65D
:104BE000FF020002114000F4E0600843234908433B
:104BF0001860704770B5204B1C68C4F30223012471
:104C0000C3F10705052D2EBF0F2504FA05F56D1E0E
:104C10001E1D072E34BF0023DB1E2940994004FAD5
:104C200003F35B1E1A401143BDE87040C8E7000063
:104C3000010007D4012200F01F018A40104B4009F7
:104C400043F820207047401E10B5B0F1807F01D39B
:104C5000012010BD0B4C60600F214FF0FF30FFF7BB
:104C6000AFFF0021A16007202060002010BD0000E0
:104C700000E400E018ED00E00CED00E00000FA05B3
:104C800000E100E010E000E038B504460D4D287862
:104C9000A8B14FF47A710C4AB1FBF0F01368B3FB82
:104CA000F0F0FFF7D0FF50B9102C08D200222146B7
:104CB0004FF0FF30FFF79EFFAC60002032BD0120B7
:104CC00032BD00BF300000305C00003080B50A48C3
:104CD0000168002241F0807101600068002100F04D
:104CE0008070009000980820FFF784FF0820BDE83E
:104CF0000240FFF79DBF00BF880C025462F30F22F1
:104D000062F31F42401810F0030308D0C91A1FD3E2
:104D1000DB0748BF00F8012D28BF20F8022D130043
:104D200030B414461546103928BF20E93C00FAD8A3
:104D3000490728BF20E90C0048BF40F8042D89002E
:104D400028BF20F8022D48BF00F8012D30BC704765
:104D5000C91818BF00F8012DCB0728BF00F8012D96
:104D60007047704710B50D4A13680C2203600C6839
:104D700042614460B1F90A3003614A688260B1F966
:104D800008304FF40042C360B1F90C10C261816178
:104D900000214162BDE81040FEF70EBE5800003011
:104DA0007047000001484068704700BF3000003085
:104DB0000022FFF7A7BF0000002200F001B80000AA
:104DC00000B500BF130096469446103928BFA0E8EE
:104DD0000C50FAD85FEA417C28BF0CC048BF40F8AD
:104DE000042BC90728BF20F8022B48BF00F8012B6D
:104DF00000BD000010B5B948022181644268B8497D
:104E0000002442F4406242600B68042262F39C6317
:104E10000B60B44900220A6000234B608C60CA60BA
:104E2000016841F470010160AF480268AF4942F483
:104E3000700202604FF040600860AD48816901F087
:104E40006041B1F1604F18BFB1F1404F0ED1C1695F
:104E5000CA0703D5A749C160A74AC260C16941F02A
:104E60000201C161C16941F00101C161A3490A6A3E
:104E70005208520042F480720A620A6842F030021C
:104E80000A604A681307FCD59D490B69402262F30A
:104E900016430B610A6822F018020A600B6843F09F
:104EA00001030B600A689307FCD50368052262F3CF
:104EB000030303608A6A012060F301028A628A6A3E
:104EC00042F480328A628A6A42F400328A628A6AD2
:104ED00042F480228A628A6A22F010028A628B6A15
:104EE000022262F383038B628A6A22F020028A62C2
:104EF0008B6A082262F30D238B624B6B3B2262F3B9
:104F000008034B634A6B60F34F224A634A6B60F3BA
:104F100016424A634A6B60F31E624A63086840F0B7
:104F2000807008600A689001FCD50A6A12091201B3
:104F30000A62086A20F070000862086A20F4E060E3
:104F40000862086A20F4E0400862C86940F0030083
:104F5000C861C86900F018001828FAD1086840F440
:104F60008050086010BD000010B56549C869654AE9
:104F700010F0180006D0082809D0102809D01828E9
:104F800009D069E00868C0F3C100C24064E05E4A2D
:104F900062E05E4A60E08B6A886AC0F3052000EE3A
:104FA000100A886A03F00303B8EE400AC0F3001445
:104FB000886BC0F3CC00444300EE904AF8EE600AE0
:104FC000012B04D038D3032B20D00BD334E0086856
:104FD000C0F3C100C24001EE102AB8EE411A81EEC2
:104FE000000A17E0486B9FED391A81EE000AC0F302
:104FF000080001EE900AF8EE611A9FED351A40EEB6
:10500000811AF7EE000A71EEA00A12E0DFED311A04
:1050100081EE800A486BDFED2E1AC0F3080001EE26
:10502000100AB8EE411A00EEA11AF7EE000A71EE6E
:10503000200A20EE200A01E09FED270A486BC0F30A
:105040004620401C00EE900AF8EE600A80EE200A2E
:10505000BCEEC00A10EE102A2D480260096A00BF9B
:105060002CA301F00F01595CCA40026010BD80B54D
:10507000FFF77AFFBDE802402548002100680022C2
:1050800000238C4600EE101A00EE901A01EE101A62
:1050900001EE901A02EE101A02EE901A03EE101AA8
:1050A00003EE901A04EE101A04EE901A05EE101A90
:1050B00005EE901A06EE101A06EE901A07EE101A78
:1050C00007EE901A81F30088744700000024744AA8
:1050D000000000390024F44A0000000088ED00E0E0
:1050E00034EF00E080E300E088ED02E008ED00E04E
:1050F000002002503B2A19087F6E5D4C10080254B4
:10510000000C02540090D00300093D0000127A0008
:105110005C000030000000000000000001020304F9
:10512000060708090001FD0F6000000000000000F4
:10513000989C08E96934B8B0C754E7B38704DCCA5F
:105140009611551838F2F429D30FC056986A757F16
:10515000CC05B01317775C865A3F987D1778C12D20
:105160007E517851A0F42DD92DFA6C1D859B25FE1A
:105170007750000000000000000000000000000068
:10518000000000000000000000000000000000001F
:1051900052656164204441204F424B206265666F36
:1051A00072652070726F766973696F6E696E670DD4
:1051B0000A0000000D0A3D3D3D3D3D3D3D3D3D3D6C
:1051C0003D3D3D3D3D3D3D3D3D3D3D3D3D3D3D3D0F
:1051D0003D3D3D3D3D3D3D3D3D3D3D3D3D3D3D3DFF
:1051E0003D3D3D3D0D0A0000252E327820252E3212
:1051F0007820252E327820252E327820252E3278E0
:1052000020252E327820252E327820252E32782027
:10521000252E327820252E327820252E3278202512
:105220002E327820252E327820252E327820252EF9
:10523000327820252E32780D0A0000005265616414
:10524000204F424B206865616465722066726F6D05
:105250002064656661756C742044412064617461EA
:105260000D0A000057726F6E6720486561646572B1
:1052700020656E637279707465642076616C756503
:1052800020210D0A0000000050726F766973696F6B
:105290006E204F424B2064617461206E6F74204514
:1052A0004E435259505445440D0A00000D0A5265B0
:1052B0006164204441204F424B2061667465722036
:1052C00070726F766973696F6E696E670D0A0000A0
:1052D0003D3D3D3D3D3D3D3D3D3D3D3D3D3D3D3DFE
:1052E0003D3D3D3D3D3D3D3D3D3D3D3D3D3D3D3DEE
:1052F0003D3D3D3D3D3D3D3D3D3D3D3D3D3D0D0A41
:10530000000000005245414420534253204844507D
:105310004C20616E64204442472072656769737453
:105320006572733A0D0A00003D3D3E20526561648E
:1053300020534253204442472043522072656769FC
:1053400073746572205B253038785D0D0A000000AB
:105350003D3D3E20456E61626C6520415020616E8E
:1053600064204442472066726F6D205342530D0AF9
:105370000000000053657474696E672070726F647A
:1053800075637420737461746520746F20307825A0
:1053900078202E2E2E0D0A004572726F72207768CB
:1053A000696C652073657474696E67204F42204292
:1053B000616E6B3120636F6E666967207374617410
:1053C00065210D0A000000004572726F7220776837
:1053D000696C6520657865637574696F6E204F42EE
:1053E0005F4C61756E63680D0A000000416674656C
:1053F00072204F425F4C61756E63683A2073686F2C
:10540000756C646E27742062652068657265202162
:105410000D0A00000D0A203D3D3D3D3D3D3D3D2036
:1054200054657374206D656E75203D3D3D3D3D3D79
:105430003D3D200D0A0000003D3D3D3E20466F727F
:1054400063652050726F766973696F6E206F662096
:105450004441206F626B0D0A00000000204578690E
:10546000742066726F6D206D656E752C207374618B
:105470007274204750494F20746F67676C65200D28
:105480000A00000080B54EF2FE703E490880BFF36E
:105490004F8FBFF36F8FA2B02DEC000A2DE9F00FF4
:1054A0000020394A0021002300240025002600277F
:1054B0008046814682468346844680F3008822F0F7
:1054C00001029447BDE8F00FEFF3148515F0080FC3
:1054D00018BFB0EE400A3DEC000A22B001BDFEE765
:1054E00080B5FFF7CFFFFEE780B5FFF7CBFFFEE704
:1054F00080B5FFF7C7FFFEE780B5FFF7C3FFFEE704
:1055000080B5FFF7BFFF21480068A8B1A2B02DEC1D
:10551000000A40082DE9F00F00F03CF88447BDE890
:10552000F00FEFF3148515F0080F18BFB0EE400A26
:105530003DEC000A22B0FEE7FEE770477047704777
:1055400080B500F037F8BDE80140FDF7EDBD80B54E
:10555000FEF767F80E48006890B1A2B02DEC000A83
:1055600040082DE9F00F00F015F88447BDE8F00F72
:10557000EFF3148515F0080F18BFB0EE400AAAE744
:10558000FEE700000000052001000520C4010030F6
:10559000C801003000214000002200230024002523
:1055A00000260027884689468A468B468C4681F32A
:1055B0000088704702494A68087882184A60704734
:1055C0003000003080B50D49794430310C4A7A44BE
:1055D0002E32914203D00B49AFF3008002BD8DF80B
:1055E0000000012269460120FEF7A2F9012802D13C
:1055F0009DF8000002BD4FF0FF3002BD04AAFFF38A
:1056000000AAFFF39800003030B4002512E050F8F3
:10561000042BD30744BF4A44521E091F042942F8F1
:10562000045BFAD213468C0744BF15809B1CC90744
:1056300048BF1D7050F8041B0029E8D130BC7047EA
:10564000446F75626C6520454343206572726F72CA
:105650002064657465637465643A20464C41534820
:105660005F454343444554523D3078256C780D0ADC
:105670000000000010B5074979441831064C7C44FD
:10568000163404E00A68081D114488470146A14207
:10569000F8D110BD2C000000480000004EF68851E3
:1056A000CEF20001086840F470000860BFF34F8F2D
:1056B000BFF36F8F4FF00170E1EE100A70470000EA
:1056C00049FFFFFFFC000000E00000300000000088
:1056D000ABBAFFFFBC020000380100000000003040
:1056E00031B1064A18B1012808BF516000E01160CD
:1056F00000200021002280F300887447C40100309C
:1057000000F00DF8002801D0FFF7B4FFAFF30080E0
:105710000020AFF30080FDF705FB00F002F8012048
:10572000704700F001B8000007463846FCF7C8FA99
:10573000FBE700000548014603B4684680F309888A
:10574000AFF30080FFF7AAFFFFF7DAFFA5EDF5FE44
:105750000000000000020000100000001000000027
:1057600010000000FF00000038B504460D46284632
:10577000FFF728FFA84218BF0024204632BD0000D2
:105780000148804701480047F54D000C3557000C93
:105790000000000001020304FFF7FEBFFFF7FEBF99
:1057A000FFF7FEBFFFF7FEBFFFF7FEBFFFF7FEBF2D
:1057B000FFF7FEBFFFF7FEBFFFF7FEBFFFF7FEBF1D
:1057C000FFF7FEBFFFF7FEBFFFF7FEBFFFF7FEBF0D
:1057D000FFF7FEBFFFF7FEBFFFF7FEBFFFF7FEBFFD
:1057E000FFF7FEBFFFF7FEBFFFF7FEBFFFF7FEBFED
:1057F000FFF7FEBFFFF7FEBFFFF7FEBFFFF7FEBFDD
:10580000FFF7FEBFFFF7FEBFFFF7FEBFFFF7FEBFCC
:10581000FFF7FEBFFFF7FEBFFFF7FEBFFFF7FEBFBC
:10582000FFF7FEBFFFF7FEBFFFF7FEBFFFF7FEBFAC
:10583000FFF7FEBFFFF7FEBFFFF7FEBFFFF7FEBF9C
:10584000FFF7FEBFFFF7FEBFFFF7FEBFFFF7FEBF8C
:10585000FFF7FEBFFFF7FEBFFFF7FEBFFFF7FEBF7C
:10586000FFF7FEBFFFF7FEBFFFF7FEBFFFF7FEBF6C
:10587000FFF7FEBFFFF7FEBFFFF7FEBFFFF7FEBF5C
:10588000FFF7FEBFFFF7FEBFFFF7FEBFFFF7FEBF4C
:10589000FFF7FEBFFFF7FEBFFFF7FEBFFFF7FEBF3C
:1058A000FFF7FEBFFFF7FEBFFFF7FEBFFFF7FEBF2C
:1058B000FFF7FEBFFFF7FEBFFFF7FEBFFFF7FEBF1C
:1058C000FFF7FEBFFFF7FEBFFFF7FEBFFFF7FEBF0C
:1058D000FFF7FEBFFFF7FEBFFFF7FEBFFFF7FEBFFC
:1058E000FFF7FEBFFFF7FEBFFFF7FEBFFFF7FEBFEC
:1058F000FFF7FEBFFFF7FEBFFFF7FEBFFFF7FEBFDC
:10590000FFF7FEBFFFF7FEBFFFF7FEBFFFF7FEBFCB
:10591000FFF7FEBFFFF7FEBFFFF7FEBFFFF7FEBFBB
:10592000FFF7FEBFFFF7FEBFFFF7FEBFFFF7FEBFAB
:10593000FFF7FEBFFFF7FEBFFFF7FEBFFFF7FEBF9B
:10594000FFF7FEBFFFF7FEBFFFF7FEBFFFF7FEBF8B
:10595000FFF7FEBFFFF7FEBFFFF7FEBFFFF7FEBF7B
:10596000FFF7FEBFFFF7FEBFFFF7FEBFFFF7FEBF6B
:10597000FFF7FEBFFFF7FEBFFFF7FEBFFFF7FEBF5B
:10598000FFF7FEBFFFF7FEBFFFF7FEBFFFF7FEBF4B
:1059900018180000305057000C800300003F04002E
:1059A00000800300003F04000001FD000408000027
:1059B0003001FD00041000003001FD0004E8030088
:1059C0000001F9000010ED000001F4002248005031
:1059D0000090D0034212000C4212000C4212000C44
:1059E0004212000C4212000C4212000C4212000C37
:1059F000F8FF0BCA11000C4212000C4212000CFA04
:105A0000FF1500000204010174010030C4010030E0
:105A10007401003074010030FC000374010030FC9C
:0C5A20000007DC000030C8000030E0008F
:020000040C05E9
:108000007FE97FE9ADF76CBB7FE97FE9ADF72FB87A
:108010000000000000000000000000000000000060
:040000050C0057355F
:00000001FF
